{
  "contractName": "busSafe",
  "abi": [
    {
      "anonymous": false,
      "inputs": [
        {
          "indexed": false,
          "internalType": "address",
          "name": "checker",
          "type": "address"
        },
        {
          "indexed": false,
          "internalType": "string",
          "name": "car_id",
          "type": "string"
        },
        {
          "indexed": false,
          "internalType": "string",
          "name": "check_res",
          "type": "string"
        },
        {
          "indexed": false,
          "internalType": "string",
          "name": "check_etc",
          "type": "string"
        },
        {
          "indexed": false,
          "internalType": "uint64",
          "name": "check_time",
          "type": "uint64"
        }
      ],
      "name": "AddCheck",
      "type": "event"
    },
    {
      "constant": true,
      "inputs": [
        {
          "internalType": "uint256",
          "name": "",
          "type": "uint256"
        }
      ],
      "name": "checks",
      "outputs": [
        {
          "internalType": "address",
          "name": "checker",
          "type": "address"
        },
        {
          "internalType": "string",
          "name": "car_id",
          "type": "string"
        },
        {
          "internalType": "string",
          "name": "check_res",
          "type": "string"
        },
        {
          "internalType": "string",
          "name": "check_etc",
          "type": "string"
        },
        {
          "internalType": "uint64",
          "name": "check_time",
          "type": "uint64"
        }
      ],
      "payable": false,
      "stateMutability": "view",
      "type": "function"
    },
    {
      "constant": false,
      "inputs": [
        {
          "internalType": "string",
          "name": "_car_id",
          "type": "string"
        },
        {
          "internalType": "string",
          "name": "_check_res",
          "type": "string"
        },
        {
          "internalType": "string",
          "name": "_check_etc",
          "type": "string"
        },
        {
          "internalType": "uint64",
          "name": "_check_time",
          "type": "uint64"
        }
      ],
      "name": "AddCheckList",
      "outputs": [],
      "payable": false,
      "stateMutability": "nonpayable",
      "type": "function"
    },
    {
      "constant": true,
      "inputs": [],
      "name": "TotalCount",
      "outputs": [
        {
          "internalType": "uint32",
          "name": "",
          "type": "uint32"
        }
      ],
      "payable": false,
      "stateMutability": "view",
      "type": "function"
    },
    {
      "constant": true,
      "inputs": [
        {
          "internalType": "uint256",
          "name": "_index",
          "type": "uint256"
        }
      ],
      "name": "GetCheck",
      "outputs": [
        {
          "internalType": "address",
          "name": "",
          "type": "address"
        },
        {
          "internalType": "string",
          "name": "",
          "type": "string"
        },
        {
          "internalType": "string",
          "name": "",
          "type": "string"
        },
        {
          "internalType": "string",
          "name": "",
          "type": "string"
        },
        {
          "internalType": "uint64",
          "name": "",
          "type": "uint64"
        }
      ],
      "payable": false,
      "stateMutability": "view",
      "type": "function"
    }
  ],
  "bytecode": "0x608060405234801561001057600080fd5b50610f50806100206000396000f3fe608060405234801561001057600080fd5b506004361061004c5760003560e01c8063618e7bd914610051578063dc627b791461021e578063e9d348951461041b578063fbd1df54146105e8575b600080fd5b61007d6004803603602081101561006757600080fd5b8101908080359060200190929190505050610612565b604051808673ffffffffffffffffffffffffffffffffffffffff1673ffffffffffffffffffffffffffffffffffffffff1681526020018060200180602001806020018567ffffffffffffffff1667ffffffffffffffff168152602001848103845288818151815260200191508051906020019080838360005b838110156101115780820151818401526020810190506100f6565b50505050905090810190601f16801561013e5780820380516001836020036101000a031916815260200191505b50848103835287818151815260200191508051906020019080838360005b8381101561017757808201518184015260208101905061015c565b50505050905090810190601f1680156101a45780820380516001836020036101000a031916815260200191505b50848103825286818151815260200191508051906020019080838360005b838110156101dd5780820151818401526020810190506101c2565b50505050905090810190601f16801561020a5780820380516001836020036101000a031916815260200191505b509850505050505050505060405180910390f35b6104196004803603608081101561023457600080fd5b810190808035906020019064010000000081111561025157600080fd5b82018360208201111561026357600080fd5b8035906020019184600183028401116401000000008311171561028557600080fd5b91908080601f016020809104026020016040519081016040528093929190818152602001838380828437600081840152601f19601f820116905080830192505050505050509192919290803590602001906401000000008111156102e857600080fd5b8201836020820111156102fa57600080fd5b8035906020019184600183028401116401000000008311171561031c57600080fd5b91908080601f016020809104026020016040519081016040528093929190818152602001838380828437600081840152601f19601f8201169050808301925050505050505091929192908035906020019064010000000081111561037f57600080fd5b82018360208201111561039157600080fd5b803590602001918460018302840111640100000000831117156103b357600080fd5b91908080601f016020809104026020016040519081016040528093929190818152602001838380828437600081840152601f19601f820116905080830192505050505050509192919290803567ffffffffffffffff169060200190929190505050610851565b005b6104476004803603602081101561043157600080fd5b8101908080359060200190929190505050610ba1565b604051808673ffffffffffffffffffffffffffffffffffffffff1673ffffffffffffffffffffffffffffffffffffffff1681526020018060200180602001806020018567ffffffffffffffff1667ffffffffffffffff168152602001848103845288818151815260200191508051906020019080838360005b838110156104db5780820151818401526020810190506104c0565b50505050905090810190601f1680156105085780820380516001836020036101000a031916815260200191505b50848103835287818151815260200191508051906020019080838360005b83811015610541578082015181840152602081019050610526565b50505050905090810190601f16801561056e5780820380516001836020036101000a031916815260200191505b50848103825286818151815260200191508051906020019080838360005b838110156105a757808201518184015260208101905061058c565b50505050905090810190601f1680156105d45780820380516001836020036101000a031916815260200191505b509850505050505050505060405180910390f35b6105f0610e5d565b604051808263ffffffff1663ffffffff16815260200191505060405180910390f35b6001818154811061061f57fe5b90600052602060002090600502016000915090508060000160009054906101000a900473ffffffffffffffffffffffffffffffffffffffff1690806001018054600181600116156101000203166002900480601f0160208091040260200160405190810160405280929190818152602001828054600181600116156101000203166002900480156106f15780601f106106c6576101008083540402835291602001916106f1565b820191906000526020600020905b8154815290600101906020018083116106d457829003601f168201915b505050505090806002018054600181600116156101000203166002900480601f01602080910402602001604051908101604052809291908181526020018280546001816001161561010002031660029004801561078f5780601f106107645761010080835404028352916020019161078f565b820191906000526020600020905b81548152906001019060200180831161077257829003601f168201915b505050505090806003018054600181600116156101000203166002900480601f01602080910402602001604051908101604052809291908181526020018280546001816001161561010002031660029004801561082d5780601f106108025761010080835404028352916020019161082d565b820191906000526020600020905b81548152906001019060200180831161081057829003601f168201915b5050505050908060040160009054906101000a900467ffffffffffffffff16905085565b600033905060016040518060a001604052808373ffffffffffffffffffffffffffffffffffffffff1681526020018781526020018681526020018581526020018467ffffffffffffffff168152509080600181540180825580915050906001820390600052602060002090600502016000909192909190915060008201518160000160006101000a81548173ffffffffffffffffffffffffffffffffffffffff021916908373ffffffffffffffffffffffffffffffffffffffff160217905550602082015181600101908051906020019061092d929190610e76565b50604082015181600201908051906020019061094a929190610e76565b506060820151816003019080519060200190610967929190610e76565b5060808201518160040160006101000a81548167ffffffffffffffff021916908367ffffffffffffffff16021790555050505060008081819054906101000a900463ffffffff168092919060010191906101000a81548163ffffffff021916908363ffffffff160217905550507f51fce13e9e12fb501188827d59ca2036ac7181262323ecd6856e4dd6a11275018186868686604051808673ffffffffffffffffffffffffffffffffffffffff1673ffffffffffffffffffffffffffffffffffffffff1681526020018060200180602001806020018567ffffffffffffffff1667ffffffffffffffff168152602001848103845288818151815260200191508051906020019080838360005b83811015610a8e578082015181840152602081019050610a73565b50505050905090810190601f168015610abb5780820380516001836020036101000a031916815260200191505b50848103835287818151815260200191508051906020019080838360005b83811015610af4578082015181840152602081019050610ad9565b50505050905090810190601f168015610b215780820380516001836020036101000a031916815260200191505b50848103825286818151815260200191508051906020019080838360005b83811015610b5a578082015181840152602081019050610b3f565b50505050905090810190601f168015610b875780820380516001836020036101000a031916815260200191505b509850505050505050505060405180910390a15050505050565b60006060806060600060018681548110610bb757fe5b906000526020600020906005020160000160009054906101000a900473ffffffffffffffffffffffffffffffffffffffff1660018781548110610bf657fe5b906000526020600020906005020160010160018881548110610c1457fe5b906000526020600020906005020160020160018981548110610c3257fe5b906000526020600020906005020160030160018a81548110610c5057fe5b906000526020600020906005020160040160009054906101000a900467ffffffffffffffff16838054600181600116156101000203166002900480601f016020809104026020016040519081016040528092919081815260200182805460018160011615610100020316600290048015610d0b5780601f10610ce057610100808354040283529160200191610d0b565b820191906000526020600020905b815481529060010190602001808311610cee57829003601f168201915b50505050509350828054600181600116156101000203166002900480601f016020809104026020016040519081016040528092919081815260200182805460018160011615610100020316600290048015610da75780601f10610d7c57610100808354040283529160200191610da7565b820191906000526020600020905b815481529060010190602001808311610d8a57829003601f168201915b50505050509250818054600181600116156101000203166002900480601f016020809104026020016040519081016040528092919081815260200182805460018160011615610100020316600290048015610e435780601f10610e1857610100808354040283529160200191610e43565b820191906000526020600020905b815481529060010190602001808311610e2657829003601f168201915b505050505091509450945094509450945091939590929450565b60008060009054906101000a900463ffffffff16905090565b828054600181600116156101000203166002900490600052602060002090601f016020900481019282601f10610eb757805160ff1916838001178555610ee5565b82800160010185558215610ee5579182015b82811115610ee4578251825591602001919060010190610ec9565b5b509050610ef29190610ef6565b5090565b610f1891905b80821115610f14576000816000905550600101610efc565b5090565b9056fea265627a7a72315820f4b8401faeaaa1b48fc1ba34956572a96bff8e8a1d68116480b40b3d9675a33964736f6c63430005100032",
  "source": "pragma solidity >=0.4.22 <0.8.0;\r\n\r\ncontract busSafe {\r\n    uint32 check_count;\r\n\r\n    event AddCheck(\r\n        address checker,\r\n        string car_id,\r\n        string check_res,\r\n        string check_etc,\r\n        uint64 check_time\r\n    );\r\n\r\n    struct check_list {\r\n        address checker;\r\n        string car_id;\r\n        string check_res;\r\n        string check_etc;\r\n        uint64 check_time;\r\n    }\r\n\r\n    check_list[] public checks;\r\n\r\n    function AddCheckList(string memory _car_id, string memory _check_res, string memory _check_etc,uint64 _check_time  ) public {\r\n        address _checker = msg.sender;\r\n        checks.push(check_list(_checker , _car_id,_check_res,_check_etc,_check_time));\r\n        check_count ++;\r\n        emit AddCheck(_checker , _car_id,_check_res,_check_etc,_check_time);\r\n    }\r\n    function TotalCount() public view returns(uint32) {\r\n            return check_count;\r\n        }\r\n\r\n        \r\n    function GetCheck(uint _index) public view returns(address ,string memory,string memory,string memory,uint64){\r\n        return (checks[_index].checker, checks[_index].car_id,checks[_index].check_res, checks[_index].check_etc, checks[_index].check_time );\r\n    }\r\n\r\n    // function GetCheck(uint _index) public view returns(address){\r\n    //     return checks[_index].checker;\r\n    // }\r\n        \r\n}",
  "sourcePath": "c:/apps/k_lecture/bus_safe/contracts/busSafe.sol",
  "compiler": {
    "name": "solc",
    "version": "0.5.16+commit.9c3226ce.Emscripten.clang"
  },
  "schemaVersion": "3.3.3",
  "updatedAt": "2020-12-30T09:53:00.659Z",
  "networkType": "ethereum",
  "devdoc": {
    "methods": {}
  },
  "userdoc": {
    "methods": {}
  }
}